{
  "abi": [
    {
      "inputs": [],
      "stateMutability": "nonpayable",
      "type": "constructor"
    },
    {
      "anonymous": false,
      "inputs": [
        {
          "indexed": true,
          "internalType": "address",
          "name": "creator",
          "type": "address"
        },
        {
          "indexed": true,
          "internalType": "address",
          "name": "about",
          "type": "address"
        },
        {
          "indexed": true,
          "internalType": "bytes32",
          "name": "key",
          "type": "bytes32"
        },
        {
          "indexed": false,
          "internalType": "bytes",
          "name": "val",
          "type": "bytes"
        }
      ],
      "name": "AttestationCreated",
      "type": "event"
    },
    {
      "inputs": [
        {
          "components": [
            {
              "internalType": "address",
              "name": "about",
              "type": "address"
            },
            {
              "internalType": "bytes32",
              "name": "key",
              "type": "bytes32"
            },
            {
              "internalType": "bytes",
              "name": "val",
              "type": "bytes"
            }
          ],
          "internalType": "struct AttestationStation.AttestationData[]",
          "name": "_attestations",
          "type": "tuple[]"
        }
      ],
      "name": "attest",
      "outputs": [],
      "stateMutability": "nonpayable",
      "type": "function"
    },
    {
      "inputs": [
        {
          "internalType": "address",
          "name": "_about",
          "type": "address"
        },
        {
          "internalType": "bytes32",
          "name": "_key",
          "type": "bytes32"
        },
        {
          "internalType": "bytes",
          "name": "_val",
          "type": "bytes"
        }
      ],
      "name": "attest",
      "outputs": [],
      "stateMutability": "nonpayable",
      "type": "function"
    },
    {
      "inputs": [
        {
          "internalType": "address",
          "name": "",
          "type": "address"
        },
        {
          "internalType": "address",
          "name": "",
          "type": "address"
        },
        {
          "internalType": "bytes32",
          "name": "",
          "type": "bytes32"
        }
      ],
      "name": "attestations",
      "outputs": [
        {
          "internalType": "bytes",
          "name": "",
          "type": "bytes"
        }
      ],
      "stateMutability": "view",
      "type": "function"
    },
    {
      "inputs": [],
      "name": "version",
      "outputs": [
        {
          "internalType": "string",
          "name": "",
          "type": "string"
        }
      ],
      "stateMutability": "view",
      "type": "function"
    }
  ],
  "bytecode": {
    "object": "0x60e060405234801561001057600080fd5b506001608081905260a052600060c05260805160a05160c05161094861004f60003960006101ad015260006101840152600061015b01526109486000f3fe608060405234801561001057600080fd5b506004361061004c5760003560e01c806329b42cb51461005157806354fd4d501461007a5780635eb5ea1014610082578063702b9dee14610097575b600080fd5b61006461005f366004610404565b6100aa565b6040516100719190610498565b60405180910390f35b610064610154565b6100956100903660046104b2565b6101f7565b005b6100956100a53660046105ca565b61025a565b60006020818152938152604080822085529281528281209093528252902080546100d390610621565b80601f01602080910402602001604051908101604052809291908181526020018280546100ff90610621565b801561014c5780601f106101215761010080835404028352916020019161014c565b820191906000526020600020905b81548152906001019060200180831161012f57829003601f168201915b505050505081565b606061017f7f00000000000000000000000000000000000000000000000000000000000000006102df565b6101a87f00000000000000000000000000000000000000000000000000000000000000006102df565b6101d17f00000000000000000000000000000000000000000000000000000000000000006102df565b6040516020016101e39392919061065b565b604051602081830303815290604052905090565b8060005b81811015610254576000848483818110610217576102176106b5565b905060200281019061022991906106cb565b610232906106eb565b905061024b81600001518260200151836040015161025a565b506001016101fb565b50505050565b336000908152602081815260408083206001600160a01b03871684528252808320858452909152902061028d82826107b6565b5081836001600160a01b0316336001600160a01b03167f28710dfecab43d1e29e02aa56b2e1e610c0bae19135c9cf7a83a1adb6df96d85846040516102d29190610498565b60405180910390a4505050565b6060816000036103065750506040805180820190915260018152600360fc1b602082015290565b8160005b8115610330578061031a8161088c565b91506103299050600a836108bb565b915061030a565b60008167ffffffffffffffff81111561034b5761034b610527565b6040519080825280601f01601f191660200182016040528015610375576020820181803683370190505b5090505b84156103e05761038a6001836108cf565b9150610397600a866108e6565b6103a29060306108fa565b60f81b8183815181106103b7576103b76106b5565b60200101906001600160f81b031916908160001a9053506103d9600a866108bb565b9450610379565b949350505050565b80356001600160a01b03811681146103ff57600080fd5b919050565b60008060006060848603121561041957600080fd5b610422846103e8565b9250610430602085016103e8565b9150604084013590509250925092565b60005b8381101561045b578181015183820152602001610443565b838111156102545750506000910152565b60008151808452610484816020860160208601610440565b601f01601f19169290920160200192915050565b6020815260006104ab602083018461046c565b9392505050565b600080602083850312156104c557600080fd5b823567ffffffffffffffff808211156104dd57600080fd5b818501915085601f8301126104f157600080fd5b81358181111561050057600080fd5b8660208260051b850101111561051557600080fd5b60209290920196919550909350505050565b634e487b7160e01b600052604160045260246000fd5b600082601f83011261054e57600080fd5b813567ffffffffffffffff8082111561056957610569610527565b604051601f8301601f19908116603f0116810190828211818310171561059157610591610527565b816040528381528660208588010111156105aa57600080fd5b836020870160208301376000602085830101528094505050505092915050565b6000806000606084860312156105df57600080fd5b6105e8846103e8565b925060208401359150604084013567ffffffffffffffff81111561060b57600080fd5b6106178682870161053d565b9150509250925092565b600181811c9082168061063557607f821691505b60208210810361065557634e487b7160e01b600052602260045260246000fd5b50919050565b6000845161066d818460208901610440565b8083019050601760f91b808252855161068d816001850160208a01610440565b600192019182015283516106a8816002840160208801610440565b0160020195945050505050565b634e487b7160e01b600052603260045260246000fd5b60008235605e198336030181126106e157600080fd5b9190910192915050565b6000606082360312156106fd57600080fd5b6040516060810167ffffffffffffffff828210818311171561072157610721610527565b8160405261072e856103e8565b835260208501356020840152604085013591508082111561074e57600080fd5b5061075b3682860161053d565b60408301525092915050565b601f8211156107b157600081815260208120601f850160051c8101602086101561078e5750805b601f850160051c820191505b818110156107ad5782815560010161079a565b5050505b505050565b815167ffffffffffffffff8111156107d0576107d0610527565b6107e4816107de8454610621565b84610767565b602080601f83116001811461081957600084156108015750858301515b600019600386901b1c1916600185901b1785556107ad565b600085815260208120601f198616915b8281101561084857888601518255948401946001909101908401610829565b50858210156108665787850151600019600388901b60f8161c191681555b5050505050600190811b01905550565b634e487b7160e01b600052601160045260246000fd5b60006001820161089e5761089e610876565b5060010190565b634e487b7160e01b600052601260045260246000fd5b6000826108ca576108ca6108a5565b500490565b6000828210156108e1576108e1610876565b500390565b6000826108f5576108f56108a5565b500690565b6000821982111561090d5761090d610876565b50019056fea264697066735822122086ccb170e3416b924ee9c8e3b474fb22baf4e8d6836865a3d3127c4ae65cba0564736f6c634300080f0033",
    "linkReferences": {}
  },
  "methodIdentifiers": {
    "attest((address,bytes32,bytes)[])": "5eb5ea10",
    "attest(address,bytes32,bytes)": "702b9dee",
    "attestations(address,address,bytes32)": "29b42cb5",
    "version()": "54fd4d50"
  },
  "id": 14
}